{
  "contractName": "DogsUpdated",
  "abi": [
    {
      "constant": true,
      "inputs": [],
      "name": "owner",
      "outputs": [
        {
          "name": "",
          "type": "address"
        }
      ],
      "payable": false,
      "stateMutability": "view",
      "type": "function"
    },
    {
      "inputs": [],
      "payable": false,
      "stateMutability": "nonpayable",
      "type": "constructor"
    },
    {
      "constant": false,
      "inputs": [
        {
          "name": "_owner",
          "type": "address"
        }
      ],
      "name": "initialize",
      "outputs": [],
      "payable": false,
      "stateMutability": "nonpayable",
      "type": "function"
    },
    {
      "constant": true,
      "inputs": [],
      "name": "getNumberOfDogs",
      "outputs": [
        {
          "name": "",
          "type": "uint256"
        }
      ],
      "payable": false,
      "stateMutability": "view",
      "type": "function"
    },
    {
      "constant": false,
      "inputs": [
        {
          "name": "numberOfDogs",
          "type": "uint256"
        }
      ],
      "name": "setNumberOfDogs",
      "outputs": [],
      "payable": false,
      "stateMutability": "nonpayable",
      "type": "function"
    }
  ],
  "bytecode": "0x608060405234801561001057600080fd5b506100293361002e640100000000026401000000009004565b6100a9565b600560149054906101000a900460ff1615151561004a57600080fd5b80600560006101000a81548173ffffffffffffffffffffffffffffffffffffffff021916908373ffffffffffffffffffffffffffffffffffffffff1602179055506001600560146101000a81548160ff02191690831515021790555050565b61038c806100b86000396000f3fe60806040526004361061005c576000357c01000000000000000000000000000000000000000000000000000000009004806314861b22146100615780631680a5ed1461009c5780638da5cb5b146100c7578063c4d66de81461011e575b600080fd5b34801561006d57600080fd5b5061009a6004803603602081101561008457600080fd5b810190808035906020019092919050505061016f565b005b3480156100a857600080fd5b506100b161027a565b6040518082815260200191505060405180910390f35b3480156100d357600080fd5b506100dc6102bf565b604051808273ffffffffffffffffffffffffffffffffffffffff1673ffffffffffffffffffffffffffffffffffffffff16815260200191505060405180910390f35b34801561012a57600080fd5b5061016d6004803603602081101561014157600080fd5b81019080803573ffffffffffffffffffffffffffffffffffffffff1690602001909291905050506102e5565b005b600560009054906101000a900473ffffffffffffffffffffffffffffffffffffffff1673ffffffffffffffffffffffffffffffffffffffff163373ffffffffffffffffffffffffffffffffffffffff16141515610234576040517f08c379a000000000000000000000000000000000000000000000000000000000815260040180806020018281038252600d8152602001807f6d757374206265206f776e65720000000000000000000000000000000000000081525060200191505060405180910390fd5b80600060405180807f446f677300000000000000000000000000000000000000000000000000000000815250600401905090815260200160405180910390208190555050565b60008060405180807f446f6773000000000000000000000000000000000000000000000000000000008152506004019050908152602001604051809103902054905090565b600560009054906101000a900473ffffffffffffffffffffffffffffffffffffffff1681565b600560149054906101000a900460ff1615151561030157600080fd5b80600560006101000a81548173ffffffffffffffffffffffffffffffffffffffff021916908373ffffffffffffffffffffffffffffffffffffffff1602179055506001600560146101000a81548160ff0219169083151502179055505056fea165627a7a72305820c5bc96019f1ea2bbbfc636b82a148c27dfd8ee6565689c8e547898c0e6d5d54e0029",
  "source": "pragma solidity 0.5.1;\n\nimport \"./Storage.sol\";\n\ncontract DogsUpdated is Storage {\n\n    modifier onlyOwner(){\n        require(msg.sender == owner, \"must be owner\");\n        _;\n    }\n\n    constructor() public {\n        initialize(msg.sender);\n    }\n\n    //in here is how you tell proxy about the state\n    function initialize(address _owner) public{\n        require(!_initialized);\n        owner = _owner; // this is for the DogsUpdated\n        _initialized = true; // this is for the Proxy\n    }\n\n    function getNumberOfDogs() public view returns (uint256) {\n        return _uintStorage[\"Dogs\"];\n    }\n\n    function setNumberOfDogs(uint256 numberOfDogs) public onlyOwner {\n        _uintStorage[\"Dogs\"] = numberOfDogs;\n    }\n}\n",
  "sourcePath": "/Users/Emmett/ivanontech/eth-proxy-contract/contracts/DogsUpdated.sol",
  "compiler": {
    "name": "solc",
    "version": "0.5.1+commit.c8a2cb62.Emscripten.clang"
  },
  "schemaVersion": "3.4.3",
  "updatedAt": "2021-09-16T13:46:42.808Z",
  "networkType": "ethereum",
  "devdoc": {
    "methods": {}
  },
  "userdoc": {
    "methods": {}
  }
}