{
  "contractName": "Proxy",
  "abi": [
    {
      "constant": true,
      "inputs": [],
      "name": "owner",
      "outputs": [
        {
          "name": "",
          "type": "address"
        }
      ],
      "payable": false,
      "stateMutability": "view",
      "type": "function"
    },
    {
      "inputs": [
        {
          "name": "_currentAddress",
          "type": "address"
        }
      ],
      "payable": false,
      "stateMutability": "nonpayable",
      "type": "constructor"
    },
    {
      "payable": true,
      "stateMutability": "payable",
      "type": "fallback"
    },
    {
      "constant": false,
      "inputs": [
        {
          "name": "_newAddress",
          "type": "address"
        }
      ],
      "name": "upgradeContract",
      "outputs": [],
      "payable": false,
      "stateMutability": "nonpayable",
      "type": "function"
    }
  ],
  "bytecode": "0x608060405234801561001057600080fd5b506040516020806102e98339810180604052602081101561003057600080fd5b810190808051906020019092919050505080600660006101000a81548173ffffffffffffffffffffffffffffffffffffffff021916908373ffffffffffffffffffffffffffffffffffffffff16021790555050610257806100926000396000f3fe608060405260043610610046576000357c0100000000000000000000000000000000000000000000000000000000900480638da5cb5b14610119578063eb2c022314610170575b6000600660009054906101000a900473ffffffffffffffffffffffffffffffffffffffff169050600073ffffffffffffffffffffffffffffffffffffffff168173ffffffffffffffffffffffffffffffffffffffff16141515156100a957600080fd5b60606000368080601f016020809104026020016040519081016040528093929190818152602001838380828437600081840152601f19601f820116905080830192505050505050509050600080825160208401855af43d604051816000823e8260008114610115578282f35b8282fd5b34801561012557600080fd5b5061012e6101c1565b604051808273ffffffffffffffffffffffffffffffffffffffff1673ffffffffffffffffffffffffffffffffffffffff16815260200191505060405180910390f35b34801561017c57600080fd5b506101bf6004803603602081101561019357600080fd5b81019080803573ffffffffffffffffffffffffffffffffffffffff1690602001909291905050506101e7565b005b600560009054906101000a900473ffffffffffffffffffffffffffffffffffffffff1681565b80600660006101000a81548173ffffffffffffffffffffffffffffffffffffffff021916908373ffffffffffffffffffffffffffffffffffffffff1602179055505056fea165627a7a723058206a18df3f5b745a649301af8c7ca2505170fb21d95ad65a7adc4f22649422689e0029",
  "source": "pragma solidity 0.5.1;\n\nimport \"./Storage.sol\";\n\ncontract Proxy is Storage {\n    \n    address currentAddress;\n    \n    constructor(address _currentAddress) public {\n        currentAddress = _currentAddress;\n    \n    }\n\n    \n    function upgradeContract(address _newAddress) public {\n        currentAddress = _newAddress;\n    }\n\n    // fallback function to catch all function calls that don't exist\n    // will redirect to current address\n    function () payable external{\n        address implementation = currentAddress;\n        require(implementation != address(0));\n        bytes memory data = msg.data;\n\n        assembly {\n            //0x20 is 32 which needs to be added to data\n            //mload is memory load function\n            let result := delegatecall(gas, implementation, add(data, 0x20), mload(data), 0, 0)\n            let size := returndatasize\n            let ptr := mload(0x40)\n            returndatacopy(ptr, 0 ,size)\n            switch result\n            case 0 {revert(ptr,size)}\n            default {return(ptr,size)}\n        }\n    }\n}",
  "sourcePath": "/Users/Emmett/ivanontech/eth-proxy-contract/contracts/Proxy.sol",
  "compiler": {
    "name": "solc",
    "version": "0.5.1+commit.c8a2cb62.Emscripten.clang"
  },
  "schemaVersion": "3.4.3",
  "updatedAt": "2021-09-16T13:46:42.807Z",
  "networkType": "ethereum",
  "devdoc": {
    "methods": {}
  },
  "userdoc": {
    "methods": {}
  }
}